:10100000B240805A5C013140FE2B2182F2F0FEFF9B
:101010000502D2D30302D2D307025F4201021FF3BB
:101020000924F2F0FDFF24023E40BEFF2F4E3F9305
:101030000124204EB0124A13E2D32402E2D322024A
:10104000B240522DC001A2D3C201F2401200CE0123
:10105000F2401100CF018243C001F2D040000402EF
:10106000F2D0C0FF0A02D243C005C243C105C24349
:10107000D005C243C705F2400A00C605F24091FF01
:10108000C805F24080FFC005C1430200B012FE1245
:101090003F902400FB230B43B012FE123F9023002D
:1010A0000E20B012FE12C14F0000B012FE12C14F4E
:1010B00001000F41B0122413C14F0300063CCB4F77
:1010C000001C1B533B908000E723CB43001C0F43C5
:1010D0003E40001C7D4E0F5D3FF0FF003B53FA2366
:1010E0005E4103000F9E05243F40B913B0120C135C
:1010F000CD3F3F40BB13B0120C135942001C7990F6
:101100006D00062479904D007F203B40011C023C7D
:101110003B40011C1B53FB902C000000FB23CB43E6
:1011200000003F40011CB01224130A4F0F4B1F5305
:101130001B53FB903A000000FB23CB430000B0128E
:101140002413084F79906D002E203F40BD13B0123C
:101150000C1309437F4A0E4F5E0D5B4EA813C14B23
:1011600000004B593FF00F005F4FA813C14F010023
:101170004B4B0B5F094B39F0FF000F41B0120C13C2
:101180003853E8233BF00F00D14BA8130100590D51
:10119000D149A81300003F40BF13B0120C130F41F8
:1011A000B0120C13733F79904D002E201B53B240A8
:1011B00000A54401B24040A540013A90FEFF0B2C2F
:1011C000E14B0000D14B010001000F41B01224138C
:1011D000CA4F00000A3CE14B0000D14B0100010066
:1011E0000F41B0122413CA4FC0FF1A532B53385368
:1011F000E423B24000A54001B24010A544013F40A5
:10120000C113B0120C13423F7990710040205F412E
:1012100003007F902E0032203F400080B24000A5A6
:101220004401B24002A54001CF430000B24010A5E6
:1012300044013F5000023F9000F8F023B24000A567
:101240004401B24002A54001C24300FEB24010A5D5
:101250004401B24000A54401B24040A54001B24063
:101260000010FEFFB24000A54001B24010A54401AD
:101270003F40C813B0120C1330408C107F909AFF7F
:1012800013203F40D313B0120C1330408C107990D0
:101290006B000A203F40E513B0120C135F42CA05F1
:1012A0001FF3FC2382435C015F42001C7F906700B8
:1012B00012203F40EA13B0120C133B403C003F4069
:1012C000F013B0120C133B53FA233F40F213B01249
:1012D0000C1330408C107F903F0006203F40F613E7
:1012E000B0120C1330408C103F40E513B0120C13B9
:1012F00030408C1032D0F000FD3F3040A613D2B306
:10130000DD05FD275F42CC054F4F3041073C1F53A1
:101310005D42DD052DF3FC27C24ECE056E4F4E9388
:10132000F62330410E4F0F435F0E6C4E4D4C7C90B8
:101330006100032C3D50D0FF023C3D50A9FF0FDD62
:101340001E53CE930000F0233041B240522DC00115
:10135000A2D3C201F2400500D201E242D401F24020
:101360000300D5018243C001F2D034000502F2D05F
:1013700034000B02B2F0FFFE6C01B2D02000660117
:10138000B24044026801B24022006A01B2F0F4FFA8
:101390006E01B2F0FDFF0201A2B30201F723B2D049
:0813A000550268013041001301
:1013A80030313233343536373839616263646566D3
:1013B800002D002B0024002300244F4B233961000B
:1013C8002436663662306123633500245061636BCE
:1013D800657453697A653D383023393800242330E1
:1013E80030002430303830003000233038002453A7
:0613F800303523623800CD
:1017F000FFFF421000000000FFFF0010FFFFFFFF8F

:10FF8000FFFFFFFFFFFFFFFFFFFFFFFFFFFFFFFF81
:10FF9000FFFFFFFFFFFFFFFFFFFFFFFFFFFFFFFF71
:10FFA000FFFFFFFFFFFFFFFFFFFFFFFFFFFFFFFF61
:10FFB000FFFFFFFFFFFFFFFFFFFFFFFFFFFFFFFF51
:10FFC000FA12FA12FA12FA12FA12FA12FA12FA12D1
:10FFD000FA12FA12FA12FA12FA12FA12FA12FA12C1
:10FFE000FA12FA12FA12FA12FA12FA12FA12FA12B1
:10FFF000FA12FA12FA12FA12FA12FA12FA1200109D
:0400000300001000E9
:00000001FF
