:10100000B240805A5C013140FE2B2182B240100474
:101010000007B2400002020792430C07D2D30B0232
:10102000B2D003000007023C32D0180092B302078E
:10103000FB2382430A071F4220073F901000092824
:10104000F2F0FDFF24023E40BEFF2F4E3F930124ED
:10105000204EB0126813E2D32402E2D32202B2403F
:10106000522DC001A2D3C201F2401200CE01F240C3
:101070001100CF018243C001F2D040000402F2D03F
:10108000C0FF0A02D243C005C243C105C243D00516
:10109000C243C705F2400A00C605F24091FFC805E9
:1010A000F24080FFC005C1430200B0121C133F9004
:1010B0002400FB230B43B0121C133F9023000E208F
:1010C000B0121C13C14F0000B0121C13C14F01001D
:1010D0000F41B0124213C14F0300063CCB4F001C1E
:1010E0001B533B908000E723CB43001C0F433E4043
:1010F000001C7D4E0F5D3FF0FF003B53FA235E4125
:1011000003000F9E05243F40D713B0122A13CD3F92
:101110003F40D913B0122A135942001C79906D0038
:10112000062479904D007F203B40011C023C3B404F
:10113000011C1B53FB902C000000FB23CB43000041
:101140003F40011CB01242130A4F0F4B1F531B5359
:10115000FB903A000000FB23CB430000B012421387
:10116000084F79906D002E203F40DB13B0122A13F8
:1011700009437F4A0E4F5E0D5B4EC613C14B000004
:101180004B593FF00F005F4FC613C14F01004B4B4F
:101190000B5F094B39F0FF000F41B0122A1338538F
:1011A000E8233BF00F00D14BC6130100590DD14984
:1011B000C61300003F40DD13B0122A130F41B012D6
:1011C0002A13733F79904D002E201B53B24000A587
:1011D0004401B24040A540013A90FEFF0B2CE14B88
:1011E0000000D14B010001000F41B0124213CA4F61
:1011F00000000A3CE14B0000D14B010001000F410F
:10120000B0124213CA4FC0FF1A532B533853E42372
:10121000B24000A54001B24010A544013F40DF1399
:10122000B0122A13423F7990710040205F410300C1
:101230007F902E0032203F400080B24000A5440144
:10124000B24002A54001CF430000B24010A54401C6
:101250003F5000023F9000F8F023B24000A5440147
:10126000B24002A54001C24300FEB24010A54401B5
:10127000B24000A54401B24040A54001B240001078
:10128000FEFFB24000A54001B24010A544013F401E
:10129000E613B0122A133040AA107F909AFF132051
:1012A0003F40F113B0122A133040AA1079906B001E
:1012B0000A203F400314B0122A135F42CA051FF3ED
:1012C000FC2382435C015F42001C7F906700122078
:1012D0003F400814B0122A133B403C003F400E141C
:1012E000B0122A133B53FA233F401014B0122A13B2
:1012F0003040AA107F903F0006203F401414B012E7
:101300002A133040AA103F400314B0122A13304071
:10131000AA1032D0F000FD3F3040C413D2B3DD0537
:10132000FD275F42CC054F4F3041073C1F535D42C4
:10133000DD052DF3FC27C24ECE056E4F4E93F623EE
:1013400030410E4F0F435F0E6C4E4D4C7C90610050
:10135000032C3D50D0FF023C3D50A9FF0FDD1E5332
:10136000CE930000F0233041B240522DC001A2D3F1
:10137000C201F2400500D201E242D401F240030072
:10138000D5018243C001F2D034000502F2D034000E
:101390000B02B2F0FFFE6C01B2D020006601B24039
:1013A00044026801B24022006A01B2F0F4FF6E010B
:1013B000B2F0FDFF0201A2B30201F723B2D0550241
:0613C0006801304100133A
:1013C60030313233343536373839616263646566B5
:1013D600002D002B0024002300244F4B23396100ED
:1013E6002436663662306123633500245061636BB0
:1013F600657453697A653D383023393800242330C3
:101406003000243030383000300023303800245388
:06141600303523623800AE
:10FF8000FFFFFFFFFFFFFFFFFFFFFFFFFFFFFFFF81
:10FF9000FFFFFFFFFFFFFFFFFFFFFFFFFFFFFFFF71
:10FFA000FFFFFFFFFFFFFFFFFFFFFFFFFFFFFFFF61
:10FFB000FFFFFFFFFFFFFFFFFFFFFFFFFFFFFFFF51
:10FFC00018131813181318131813181318131813D9
:10FFD00018131813181318131813181318131813C9
:10FFE00018131813181318131813181318131813B9
:10FFF00018131813181318131813181318130010C4
:0400000300001000E9
:00000001FF
